{
  "_format": "hh-sol-artifact-1",
  "contractName": "Contract",
  "sourceName": "contracts/Contract.sol",
  "abi": [
    {
      "inputs": [
        {
          "internalType": "string",
          "name": "_name",
          "type": "string"
        },
        {
          "internalType": "string",
          "name": "_symbol",
          "type": "string"
        },
        {
          "internalType": "address",
          "name": "_royaltyRecipient",
          "type": "address"
        },
        {
          "internalType": "uint128",
          "name": "_royaltyBps",
          "type": "uint128"
        }
      ],
      "stateMutability": "nonpayable",
      "type": "constructor"
    },
    {
      "inputs": [],
      "name": "ApprovalCallerNotOwnerNorApproved",
      "type": "error"
    },
    {
      "inputs": [],
      "name": "ApprovalQueryForNonexistentToken",
      "type": "error"
    },
    {
      "inputs": [],
      "name": "ApprovalToCurrentOwner",
      "type": "error"
    },
    {
      "inputs": [],
      "name": "ApproveToCaller",
      "type": "error"
    },
    {
      "inputs": [],
      "name": "BalanceQueryForZeroAddress",
      "type": "error"
    },
    {
      "inputs": [],
      "name": "MintToZeroAddress",
      "type": "error"
    },
    {
      "inputs": [],
      "name": "MintZeroQuantity",
      "type": "error"
    },
    {
      "inputs": [
        {
          "internalType": "address",
          "name": "operator",
          "type": "address"
        }
      ],
      "name": "OperatorNotAllowed",
      "type": "error"
    },
    {
      "inputs": [],
      "name": "OwnerQueryForNonexistentToken",
      "type": "error"
    },
    {
      "inputs": [],
      "name": "TransferCallerNotOwnerNorApproved",
      "type": "error"
    },
    {
      "inputs": [],
      "name": "TransferFromIncorrectOwner",
      "type": "error"
    },
    {
      "inputs": [],
      "name": "TransferToNonERC721ReceiverImplementer",
      "type": "error"
    },
    {
      "inputs": [],
      "name": "TransferToZeroAddress",
      "type": "error"
    },
    {
      "inputs": [],
      "name": "URIQueryForNonexistentToken",
      "type": "error"
    },
    {
      "anonymous": false,
      "inputs": [
        {
          "indexed": true,
          "internalType": "address",
          "name": "owner",
          "type": "address"
        },
        {
          "indexed": true,
          "internalType": "address",
          "name": "approved",
          "type": "address"
        },
        {
          "indexed": true,
          "internalType": "uint256",
          "name": "tokenId",
          "type": "uint256"
        }
      ],
      "name": "Approval",
      "type": "event"
    },
    {
      "anonymous": false,
      "inputs": [
        {
          "indexed": true,
          "internalType": "address",
          "name": "owner",
          "type": "address"
        },
        {
          "indexed": true,
          "internalType": "address",
          "name": "operator",
          "type": "address"
        },
        {
          "indexed": false,
          "internalType": "bool",
          "name": "approved",
          "type": "bool"
        }
      ],
      "name": "ApprovalForAll",
      "type": "event"
    },
    {
      "anonymous": false,
      "inputs": [
        {
          "indexed": false,
          "internalType": "string",
          "name": "prevURI",
          "type": "string"
        },
        {
          "indexed": false,
          "internalType": "string",
          "name": "newURI",
          "type": "string"
        }
      ],
      "name": "ContractURIUpdated",
      "type": "event"
    },
    {
      "anonymous": false,
      "inputs": [
        {
          "indexed": true,
          "internalType": "address",
          "name": "newRoyaltyRecipient",
          "type": "address"
        },
        {
          "indexed": false,
          "internalType": "uint256",
          "name": "newRoyaltyBps",
          "type": "uint256"
        }
      ],
      "name": "DefaultRoyalty",
      "type": "event"
    },
    {
      "anonymous": false,
      "inputs": [
        {
          "indexed": false,
          "internalType": "bool",
          "name": "restriction",
          "type": "bool"
        }
      ],
      "name": "OperatorRestriction",
      "type": "event"
    },
    {
      "anonymous": false,
      "inputs": [
        {
          "indexed": true,
          "internalType": "address",
          "name": "prevOwner",
          "type": "address"
        },
        {
          "indexed": true,
          "internalType": "address",
          "name": "newOwner",
          "type": "address"
        }
      ],
      "name": "OwnerUpdated",
      "type": "event"
    },
    {
      "anonymous": false,
      "inputs": [
        {
          "indexed": true,
          "internalType": "uint256",
          "name": "tokenId",
          "type": "uint256"
        },
        {
          "indexed": true,
          "internalType": "address",
          "name": "royaltyRecipient",
          "type": "address"
        },
        {
          "indexed": false,
          "internalType": "uint256",
          "name": "royaltyBps",
          "type": "uint256"
        }
      ],
      "name": "RoyaltyForToken",
      "type": "event"
    },
    {
      "anonymous": false,
      "inputs": [
        {
          "indexed": true,
          "internalType": "address",
          "name": "from",
          "type": "address"
        },
        {
          "indexed": true,
          "internalType": "address",
          "name": "to",
          "type": "address"
        },
        {
          "indexed": true,
          "internalType": "uint256",
          "name": "tokenId",
          "type": "uint256"
        }
      ],
      "name": "Transfer",
      "type": "event"
    },
    {
      "inputs": [],
      "name": "OPERATOR_FILTER_REGISTRY",
      "outputs": [
        {
          "internalType": "contract IOperatorFilterRegistry",
          "name": "",
          "type": "address"
        }
      ],
      "stateMutability": "view",
      "type": "function"
    },
    {
      "inputs": [
        {
          "internalType": "address",
          "name": "operator",
          "type": "address"
        },
        {
          "internalType": "uint256",
          "name": "tokenId",
          "type": "uint256"
        }
      ],
      "name": "approve",
      "outputs": [],
      "stateMutability": "nonpayable",
      "type": "function"
    },
    {
      "inputs": [
        {
          "internalType": "address",
          "name": "owner",
          "type": "address"
        }
      ],
      "name": "balanceOf",
      "outputs": [
        {
          "internalType": "uint256",
          "name": "",
          "type": "uint256"
        }
      ],
      "stateMutability": "view",
      "type": "function"
    },
    {
      "inputs": [
        {
          "internalType": "address",
          "name": "_to",
          "type": "address"
        },
        {
          "internalType": "uint256",
          "name": "_quantity",
          "type": "uint256"
        },
        {
          "internalType": "string",
          "name": "_baseURI",
          "type": "string"
        },
        {
          "internalType": "bytes",
          "name": "_data",
          "type": "bytes"
        }
      ],
      "name": "batchMintTo",
      "outputs": [],
      "stateMutability": "nonpayable",
      "type": "function"
    },
    {
      "inputs": [
        {
          "internalType": "uint256",
          "name": "_tokenId",
          "type": "uint256"
        }
      ],
      "name": "burn",
      "outputs": [],
      "stateMutability": "nonpayable",
      "type": "function"
    },
    {
      "inputs": [],
      "name": "contractURI",
      "outputs": [
        {
          "internalType": "string",
          "name": "",
          "type": "string"
        }
      ],
      "stateMutability": "view",
      "type": "function"
    },
    {
      "inputs": [
        {
          "internalType": "uint256",
          "name": "tokenId",
          "type": "uint256"
        }
      ],
      "name": "getApproved",
      "outputs": [
        {
          "internalType": "address",
          "name": "",
          "type": "address"
        }
      ],
      "stateMutability": "view",
      "type": "function"
    },
    {
      "inputs": [],
      "name": "getBaseURICount",
      "outputs": [
        {
          "internalType": "uint256",
          "name": "",
          "type": "uint256"
        }
      ],
      "stateMutability": "view",
      "type": "function"
    },
    {
      "inputs": [
        {
          "internalType": "uint256",
          "name": "_index",
          "type": "uint256"
        }
      ],
      "name": "getBatchIdAtIndex",
      "outputs": [
        {
          "internalType": "uint256",
          "name": "",
          "type": "uint256"
        }
      ],
      "stateMutability": "view",
      "type": "function"
    },
    {
      "inputs": [],
      "name": "getDefaultRoyaltyInfo",
      "outputs": [
        {
          "internalType": "address",
          "name": "",
          "type": "address"
        },
        {
          "internalType": "uint16",
          "name": "",
          "type": "uint16"
        }
      ],
      "stateMutability": "view",
      "type": "function"
    },
    {
      "inputs": [
        {
          "internalType": "uint256",
          "name": "_tokenId",
          "type": "uint256"
        }
      ],
      "name": "getRoyaltyInfoForToken",
      "outputs": [
        {
          "internalType": "address",
          "name": "",
          "type": "address"
        },
        {
          "internalType": "uint16",
          "name": "",
          "type": "uint16"
        }
      ],
      "stateMutability": "view",
      "type": "function"
    },
    {
      "inputs": [
        {
          "internalType": "address",
          "name": "owner",
          "type": "address"
        },
        {
          "internalType": "address",
          "name": "operator",
          "type": "address"
        }
      ],
      "name": "isApprovedForAll",
      "outputs": [
        {
          "internalType": "bool",
          "name": "",
          "type": "bool"
        }
      ],
      "stateMutability": "view",
      "type": "function"
    },
    {
      "inputs": [
        {
          "internalType": "address",
          "name": "_operator",
          "type": "address"
        },
        {
          "internalType": "uint256",
          "name": "_tokenId",
          "type": "uint256"
        }
      ],
      "name": "isApprovedOrOwner",
      "outputs": [
        {
          "internalType": "bool",
          "name": "isApprovedOrOwnerOf",
          "type": "bool"
        }
      ],
      "stateMutability": "view",
      "type": "function"
    },
    {
      "inputs": [
        {
          "internalType": "address",
          "name": "_to",
          "type": "address"
        },
        {
          "internalType": "string",
          "name": "_tokenURI",
          "type": "string"
        }
      ],
      "name": "mintTo",
      "outputs": [],
      "stateMutability": "nonpayable",
      "type": "function"
    },
    {
      "inputs": [
        {
          "internalType": "bytes[]",
          "name": "data",
          "type": "bytes[]"
        }
      ],
      "name": "multicall",
      "outputs": [
        {
          "internalType": "bytes[]",
          "name": "results",
          "type": "bytes[]"
        }
      ],
      "stateMutability": "nonpayable",
      "type": "function"
    },
    {
      "inputs": [],
      "name": "name",
      "outputs": [
        {
          "internalType": "string",
          "name": "",
          "type": "string"
        }
      ],
      "stateMutability": "view",
      "type": "function"
    },
    {
      "inputs": [],
      "name": "nextTokenIdToMint",
      "outputs": [
        {
          "internalType": "uint256",
          "name": "",
          "type": "uint256"
        }
      ],
      "stateMutability": "view",
      "type": "function"
    },
    {
      "inputs": [],
      "name": "operatorRestriction",
      "outputs": [
        {
          "internalType": "bool",
          "name": "",
          "type": "bool"
        }
      ],
      "stateMutability": "view",
      "type": "function"
    },
    {
      "inputs": [],
      "name": "owner",
      "outputs": [
        {
          "internalType": "address",
          "name": "",
          "type": "address"
        }
      ],
      "stateMutability": "view",
      "type": "function"
    },
    {
      "inputs": [
        {
          "internalType": "uint256",
          "name": "tokenId",
          "type": "uint256"
        }
      ],
      "name": "ownerOf",
      "outputs": [
        {
          "internalType": "address",
          "name": "",
          "type": "address"
        }
      ],
      "stateMutability": "view",
      "type": "function"
    },
    {
      "inputs": [
        {
          "internalType": "uint256",
          "name": "tokenId",
          "type": "uint256"
        },
        {
          "internalType": "uint256",
          "name": "salePrice",
          "type": "uint256"
        }
      ],
      "name": "royaltyInfo",
      "outputs": [
        {
          "internalType": "address",
          "name": "receiver",
          "type": "address"
        },
        {
          "internalType": "uint256",
          "name": "royaltyAmount",
          "type": "uint256"
        }
      ],
      "stateMutability": "view",
      "type": "function"
    },
    {
      "inputs": [
        {
          "internalType": "address",
          "name": "from",
          "type": "address"
        },
        {
          "internalType": "address",
          "name": "to",
          "type": "address"
        },
        {
          "internalType": "uint256",
          "name": "tokenId",
          "type": "uint256"
        }
      ],
      "name": "safeTransferFrom",
      "outputs": [],
      "stateMutability": "nonpayable",
      "type": "function"
    },
    {
      "inputs": [
        {
          "internalType": "address",
          "name": "from",
          "type": "address"
        },
        {
          "internalType": "address",
          "name": "to",
          "type": "address"
        },
        {
          "internalType": "uint256",
          "name": "tokenId",
          "type": "uint256"
        },
        {
          "internalType": "bytes",
          "name": "data",
          "type": "bytes"
        }
      ],
      "name": "safeTransferFrom",
      "outputs": [],
      "stateMutability": "nonpayable",
      "type": "function"
    },
    {
      "inputs": [
        {
          "internalType": "address",
          "name": "operator",
          "type": "address"
        },
        {
          "internalType": "bool",
          "name": "approved",
          "type": "bool"
        }
      ],
      "name": "setApprovalForAll",
      "outputs": [],
      "stateMutability": "nonpayable",
      "type": "function"
    },
    {
      "inputs": [
        {
          "internalType": "string",
          "name": "_uri",
          "type": "string"
        }
      ],
      "name": "setContractURI",
      "outputs": [],
      "stateMutability": "nonpayable",
      "type": "function"
    },
    {
      "inputs": [
        {
          "internalType": "address",
          "name": "_royaltyRecipient",
          "type": "address"
        },
        {
          "internalType": "uint256",
          "name": "_royaltyBps",
          "type": "uint256"
        }
      ],
      "name": "setDefaultRoyaltyInfo",
      "outputs": [],
      "stateMutability": "nonpayable",
      "type": "function"
    },
    {
      "inputs": [
        {
          "internalType": "bool",
          "name": "_restriction",
          "type": "bool"
        }
      ],
      "name": "setOperatorRestriction",
      "outputs": [],
      "stateMutability": "nonpayable",
      "type": "function"
    },
    {
      "inputs": [
        {
          "internalType": "address",
          "name": "_newOwner",
          "type": "address"
        }
      ],
      "name": "setOwner",
      "outputs": [],
      "stateMutability": "nonpayable",
      "type": "function"
    },
    {
      "inputs": [
        {
          "internalType": "uint256",
          "name": "_tokenId",
          "type": "uint256"
        },
        {
          "internalType": "address",
          "name": "_recipient",
          "type": "address"
        },
        {
          "internalType": "uint256",
          "name": "_bps",
          "type": "uint256"
        }
      ],
      "name": "setRoyaltyInfoForToken",
      "outputs": [],
      "stateMutability": "nonpayable",
      "type": "function"
    },
    {
      "inputs": [
        {
          "internalType": "bytes4",
          "name": "interfaceId",
          "type": "bytes4"
        }
      ],
      "name": "supportsInterface",
      "outputs": [
        {
          "internalType": "bool",
          "name": "",
          "type": "bool"
        }
      ],
      "stateMutability": "view",
      "type": "function"
    },
    {
      "inputs": [],
      "name": "symbol",
      "outputs": [
        {
          "internalType": "string",
          "name": "",
          "type": "string"
        }
      ],
      "stateMutability": "view",
      "type": "function"
    },
    {
      "inputs": [
        {
          "internalType": "uint256",
          "name": "_tokenId",
          "type": "uint256"
        }
      ],
      "name": "tokenURI",
      "outputs": [
        {
          "internalType": "string",
          "name": "",
          "type": "string"
        }
      ],
      "stateMutability": "view",
      "type": "function"
    },
    {
      "inputs": [],
      "name": "totalSupply",
      "outputs": [
        {
          "internalType": "uint256",
          "name": "",
          "type": "uint256"
        }
      ],
      "stateMutability": "view",
      "type": "function"
    },
    {
      "inputs": [
        {
          "internalType": "address",
          "name": "from",
          "type": "address"
        },
        {
          "internalType": "address",
          "name": "to",
          "type": "address"
        },
        {
          "internalType": "uint256",
          "name": "tokenId",
          "type": "uint256"
        }
      ],
      "name": "transferFrom",
      "outputs": [],
      "stateMutability": "nonpayable",
      "type": "function"
    }
  ],
  "bytecode": "0x60806040523480156200001157600080fd5b5060405162002d8238038062002d828339810160408190526200003491620004bf565b83838383733cc6cdda760b79bafa08df41ecfa224f810dceb6600185858160029080519060200190620000699291906200034c565b5080516200007f9060039060208401906200034c565b506000805550506daaeb6d7670e522a718067333cd4e3b15620001cb5780156200011957604051633e9f1edf60e11b81523060048201526001600160a01b03831660248201526daaeb6d7670e522a718067333cd4e90637d3e3dbe906044015b600060405180830381600087803b158015620000fa57600080fd5b505af11580156200010f573d6000803e3d6000fd5b50505050620001cb565b6001600160a01b038216156200016a5760405163a0af290360e01b81523060048201526001600160a01b03831660248201526daaeb6d7670e522a718067333cd4e9063a0af290390604401620000df565b604051632210724360e11b81523060048201526daaeb6d7670e522a718067333cd4e90634420e48690602401600060405180830381600087803b158015620001b157600080fd5b505af1158015620001c6573d6000803e3d6000fd5b505050505b50620001d990503362000208565b620001ee826001600160801b0383166200025a565b620001fa600162000305565b5050505050505050620005a8565b600980546001600160a01b038381166001600160a01b0319831681179093556040519116919082907f8292fce18fa69edf4db7b94ea2e58241df0ae57f97e0a6c9b29067028bf92d7690600090a35050565b612710811115620002a35760405162461bcd60e51b815260206004820152600f60248201526e45786365656473206d61782062707360881b604482015260640160405180910390fd5b600a80546001600160a01b0384166001600160b01b03199091168117600160a01b61ffff851602179091556040518281527f90d7ec04bcb8978719414f82e52e4cb651db41d0e6f8cea6118c2191e6183adb9060200160405180910390a25050565b600e805460ff19168215159081179091556040519081527f38475885990d8dfe9ca01f0ef160a1b5514426eab9ddbc953a3353410ba780969060200160405180910390a150565b8280546200035a906200056b565b90600052602060002090601f0160209004810192826200037e5760008555620003c9565b82601f106200039957805160ff1916838001178555620003c9565b82800160010185558215620003c9579182015b82811115620003c9578251825591602001919060010190620003ac565b50620003d7929150620003db565b5090565b5b80821115620003d75760008155600101620003dc565b634e487b7160e01b600052604160045260246000fd5b600082601f8301126200041a57600080fd5b81516001600160401b0380821115620004375762000437620003f2565b604051601f8301601f19908116603f01168101908282118183101715620004625762000462620003f2565b816040528381526020925086838588010111156200047f57600080fd5b600091505b83821015620004a3578582018301518183018401529082019062000484565b83821115620004b55760008385830101525b9695505050505050565b60008060008060808587031215620004d657600080fd5b84516001600160401b0380821115620004ee57600080fd5b620004fc8883890162000408565b955060208701519150808211156200051357600080fd5b50620005228782880162000408565b604087015190945090506001600160a01b03811681146200054257600080fd5b60608601519092506001600160801b03811681146200056057600080fd5b939692955090935050565b600181811c908216806200058057607f821691505b60208210811415620005a257634e487b7160e01b600052602260045260246000fd5b50919050565b6127ca80620005b86000396000f3fe608060405234801561001057600080fd5b50600436106102055760003560e01c8063504c6e011161011a57806395d89b41116100ad578063b24f2d391161007c578063b24f2d391461048c578063b88d4fde146104aa578063c87b56dd146104bd578063e8a3d485146104d0578063e985e9c5146104d857600080fd5b806395d89b411461043e5780639bcf7a1514610446578063a22cb46514610459578063ac9650d81461046c57600080fd5b806370a08231116100e957806370a08231146103f4578063754a81d9146104075780638da5cb5b1461041a578063938e3d7b1461042b57600080fd5b8063504c6e01146103b9578063600dd5ea146103c65780636352211e146103d957806363b45e2d146103ec57600080fd5b80632419f51b1161019d57806341f434341161016c57806341f434341461033657806342842e0e1461034b57806342966c681461035e578063430c2081146103715780634cc157df1461038457600080fd5b80632419f51b146102d65780632a55205a146102e957806332f0cd641461031b5780633b1475a71461032e57600080fd5b8063095ea7b3116101d9578063095ea7b31461028757806313af40351461029a57806318160ddd146102ad57806323b872dd146102c357600080fd5b806275a3171461020a57806301ffc9a71461021f57806306fdde0314610247578063081812fc1461025c575b600080fd5b61021d6102183660046120a1565b610514565b005b61023261022d366004612104565b610545565b60405190151581526020015b60405180910390f35b61024f6105b2565b60405161023e9190612179565b61026f61026a36600461218c565b610644565b6040516001600160a01b03909116815260200161023e565b61021d6102953660046121a5565b610688565b61021d6102a83660046121cf565b6106a1565b600154600054035b60405190815260200161023e565b61021d6102d13660046121ea565b6106da565b6102b56102e436600461218c565b610705565b6102fc6102f7366004612226565b610773565b604080516001600160a01b03909316835260208301919091520161023e565b61021d610329366004612256565b6107b0565b6000546102b5565b61026f6daaeb6d7670e522a718067333cd4e81565b61021d6103593660046121ea565b610821565b61021d61036c36600461218c565b610846565b61023261037f3660046121a5565b610851565b61039761039236600461218c565b6108d0565b604080516001600160a01b03909316835261ffff90911660208301520161023e565b600e546102329060ff1681565b61021d6103d43660046121a5565b61093b565b61026f6103e736600461218c565b610969565b600c546102b5565b6102b56104023660046121cf565b61097b565b61021d610415366004612273565b6109c9565b6009546001600160a01b031661026f565b61021d6104393660046122f0565b610a3d565b61024f610a6a565b61021d610454366004612324565b610a79565b61021d610467366004612349565b610aa8565b61047f61047a366004612380565b610abc565b60405161023e91906123f4565b600a546001600160a01b03811690600160a01b900461ffff16610397565b61021d6104b8366004612456565b610bb0565b61024f6104cb36600461218c565b610bdd565b61024f610ccb565b6102326104e63660046124b1565b6001600160a01b03918216600090815260076020908152604080832093909416825291909152205460ff1690565b61052661052060005490565b82610d59565b61054182600160405180602001604052806000815250610dd2565b5050565b60006301ffc9a760e01b6001600160e01b03198316148061057657506380ac58cd60e01b6001600160e01b03198316145b806105915750635b5e139f60e01b6001600160e01b03198316145b806105ac57506001600160e01b0319821663152a902d60e11b145b92915050565b6060600280546105c1906124e4565b80601f01602080910402602001604051908101604052809291908181526020018280546105ed906124e4565b801561063a5780601f1061060f5761010080835404028352916020019161063a565b820191906000526020600020905b81548152906001019060200180831161061d57829003601f168201915b5050505050905090565b600061064f82610f72565b61066c576040516333d1c03960e21b815260040160405180910390fd5b506000908152600660205260409020546001600160a01b031690565b8161069281610f9d565b61069c8383611070565b505050565b6106a96110f2565b6106ce5760405162461bcd60e51b81526004016106c59061251f565b60405180910390fd5b6106d78161111f565b50565b826001600160a01b03811633146106f4576106f433610f9d565b6106ff848484611171565b50505050565b6000610710600c5490565b821061074e5760405162461bcd60e51b815260206004820152600d60248201526c092dcecc2d8d2c840d2dcc8caf609b1b60448201526064016106c5565b600c828154811061076157610761612547565b90600052602060002001549050919050565b600080600080610782866108d0565b90945084925061ffff16905061271061079b8287612573565b6107a591906125a8565b925050509250929050565b6107b86110f2565b6108185760405162461bcd60e51b815260206004820152602b60248201527f4e6f7420617574686f72697a656420746f20736574206f70657261746f72207260448201526a32b9ba3934b1ba34b7b71760a91b60648201526084016106c5565b6106d78161117c565b826001600160a01b038116331461083b5761083b33610f9d565b6106ff8484846111c3565b6106d78160016111de565b60008061085d83610969565b9050806001600160a01b0316846001600160a01b031614806108a457506001600160a01b0380821660009081526007602090815260408083209388168352929052205460ff165b806108c85750836001600160a01b03166108bd84610644565b6001600160a01b0316145b949350505050565b6000818152600b60209081526040808320815180830190925280546001600160a01b0316808352600190910154928201929092528291156109175780516020820151610931565b600a546001600160a01b03811690600160a01b900461ffff165b9250925050915091565b6109436110f2565b61095f5760405162461bcd60e51b81526004016106c59061251f565b6105418282611391565b600061097482611437565b5192915050565b60006001600160a01b0382166109a4576040516323d3ad8160e21b815260040160405180910390fd5b506001600160a01b03166000908152600560205260409020546001600160401b031690565b6109d16110f2565b610a1d5760405162461bcd60e51b815260206004820152601760248201527f4e6f7420617574686f72697a656420746f206d696e742e00000000000000000060448201526064016106c5565b610a30610a2960005490565b8484611551565b50506106ff848483610dd2565b610a456110f2565b610a615760405162461bcd60e51b81526004016106c59061251f565b6106d7816115be565b6060600380546105c1906124e4565b610a816110f2565b610a9d5760405162461bcd60e51b81526004016106c59061251f565b61069c8383836116a0565b81610ab281610f9d565b61069c8383611769565b6060816001600160401b03811115610ad657610ad6611fff565b604051908082528060200260200182016040528015610b0957816020015b6060815260200190600190039081610af45790505b50905060005b82811015610ba957610b7930858584818110610b2d57610b2d612547565b9050602002810190610b3f91906125bc565b8080601f0160208091040260200160405190810160405280939291908181526020018383808284376000920191909152506117ff92505050565b828281518110610b8b57610b8b612547565b60200260200101819052508080610ba190612609565b915050610b0f565b5092915050565b836001600160a01b0381163314610bca57610bca33610f9d565b610bd68585858561182b565b5050505050565b6000818152600f6020526040812080546060929190610bfb906124e4565b80601f0160208091040260200160405190810160405280929190818152602001828054610c27906124e4565b8015610c745780601f10610c4957610100808354040283529160200191610c74565b820191906000526020600020905b815481529060010190602001808311610c5757829003601f168201915b50505050509050600081511115610c8b5792915050565b6000610c968461186f565b905080610ca285611a0b565b604051602001610cb3929190612624565b60405160208183030381529060405292505050919050565b60088054610cd8906124e4565b80601f0160208091040260200160405190810160405280929190818152602001828054610d04906124e4565b8015610d515780601f10610d2657610100808354040283529160200191610d51565b820191906000526020600020905b815481529060010190602001808311610d3457829003601f168201915b505050505081565b6000828152600f602052604090208054610d72906124e4565b159050610db35760405162461bcd60e51b815260206004820152600f60248201526e15549248185b1c9958591e481cd95d608a1b60448201526064016106c5565b6000828152600f60209081526040909120825161069c92840190611f4a565b6000546001600160a01b038416610dfb57604051622e076360e81b815260040160405180910390fd5b82610e195760405163b562e8dd60e01b815260040160405180910390fd5b6001600160a01b038416600081815260056020908152604080832080546fffffffffffffffffffffffffffffffff1981166001600160401b038083168b0181169182176801000000000000000067ffffffffffffffff1990941690921783900481168b01811690920217909155858452600490925290912080546001600160e01b0319168317600160a01b42909316929092029190911790558190818501903b15610f2f575b60405182906001600160a01b03881690600090600080516020612775833981519152908290a4610ef86000878480600101955087611b08565b610f15576040516368d2bf6b60e11b815260040160405180910390fd5b808210610ebf578260005414610f2a57600080fd5b610f62565b5b6040516001830192906001600160a01b03881690600090600080516020612775833981519152908290a4808210610f30575b5060009081556106ff9085838684565b60008054821080156105ac575050600090815260046020526040902054600160e01b900460ff161590565b600e5460ff16156106d7576daaeb6d7670e522a718067333cd4e3b156106d757604051633185c44d60e21b81523060048201526001600160a01b03821660248201526daaeb6d7670e522a718067333cd4e9063c61711349060440160206040518083038186803b15801561101057600080fd5b505afa158015611024573d6000803e3d6000fd5b505050506040513d601f19601f820116820180604052508101906110489190612653565b6106d757604051633b79c77360e21b81526001600160a01b03821660048201526024016106c5565b600061107b82610969565b9050806001600160a01b0316836001600160a01b031614156110b05760405163250fdee360e21b815260040160405180910390fd5b336001600160a01b038216146110e7576110ca81336104e6565b6110e7576040516367d9dca160e11b815260040160405180910390fd5b61069c838383611bff565b60006111066009546001600160a01b031690565b6001600160a01b0316336001600160a01b031614905090565b600980546001600160a01b038381166001600160a01b0319831681179093556040519116919082907f8292fce18fa69edf4db7b94ea2e58241df0ae57f97e0a6c9b29067028bf92d7690600090a35050565b61069c838383611c5b565b600e805460ff19168215159081179091556040519081527f38475885990d8dfe9ca01f0ef160a1b5514426eab9ddbc953a3353410ba780969060200160405180910390a150565b61069c83838360405180602001604052806000815250610bb0565b60006111e983611437565b8051909150821561124f576000336001600160a01b0383161480611212575061121282336104e6565b8061122d57503361122286610644565b6001600160a01b0316145b90508061124d57604051632ce44b5f60e11b815260040160405180910390fd5b505b61125b60008583611bff565b6001600160a01b0380821660008181526005602090815260408083208054600160801b6000196001600160401b0380841691909101811667ffffffffffffffff198416811783900482166001908101831690930277ffffffffffffffff0000000000000000ffffffffffffffff19909416179290921783558b86526004909452828520805460ff60e01b1942909316600160a01b026001600160e01b03199091169097179690961716600160e01b17855591890180845292208054919490911661135957600054821461135957805460208701516001600160401b0316600160a01b026001600160e01b03199091166001600160a01b038716171781555b5050604051869250600091506001600160a01b03841690600080516020612775833981519152908390a4505060018054810190555050565b6127108111156113d55760405162461bcd60e51b815260206004820152600f60248201526e45786365656473206d61782062707360881b60448201526064016106c5565b600a80546001600160a01b0384166001600160b01b03199091168117600160a01b61ffff851602179091556040518281527f90d7ec04bcb8978719414f82e52e4cb651db41d0e6f8cea6118c2191e6183adb9060200160405180910390a25050565b60408051606081018252600080825260208201819052918101919091528160005481101561153857600081815260046020908152604091829020825160608101845290546001600160a01b0381168252600160a01b81046001600160401b031692820192909252600160e01b90910460ff161515918101829052906115365780516001600160a01b0316156114cd579392505050565b5060001901600081815260046020908152604091829020825160608101845290546001600160a01b038116808352600160a01b82046001600160401b031693830193909352600160e01b900460ff1615159281019290925215611531579392505050565b6114cd565b505b604051636f96cda160e11b815260040160405180910390fd5b60008061155e8486612670565b600c8054600181019091557fdf6966c971051c3d54ec59162606531493a51404a002842f56009d7e5cf4a8c7018190556000818152600d6020908152604090912085519294508493506115b5929091860190611f4a565b50935093915050565b6000600880546115cd906124e4565b80601f01602080910402602001604051908101604052809291908181526020018280546115f9906124e4565b80156116465780601f1061161b57610100808354040283529160200191611646565b820191906000526020600020905b81548152906001019060200180831161162957829003601f168201915b5050855193945061166293600893506020870192509050611f4a565b507fc9c7c3fe08b88b4df9d4d47ef47d2c43d55c025a0ba88ca442580ed9e7348a168183604051611694929190612688565b60405180910390a15050565b6127108111156116e45760405162461bcd60e51b815260206004820152600f60248201526e45786365656473206d61782062707360881b60448201526064016106c5565b6040805180820182526001600160a01b0384811680835260208084018681526000898152600b8352869020945185546001600160a01b031916941693909317845591516001909301929092559151838152909185917f7365cf4122f072a3365c20d54eff9b38d73c096c28e1892ec8f5b0e403a0f12d910160405180910390a3505050565b6001600160a01b0382163314156117935760405163b06307db60e01b815260040160405180910390fd5b3360008181526007602090815260408083206001600160a01b03871680855290835292819020805460ff191686151590811790915590519081529192917f17307eab39ab6107e8899845ad3d59bd9653f200f220920489ca2b5937696c31910160405180910390a35050565b6060611824838360405180606001604052806027815260200161274e60279139611e34565b9392505050565b611836848484611c5b565b6001600160a01b0383163b156106ff5761185284848484611b08565b6106ff576040516368d2bf6b60e11b815260040160405180910390fd5b6060600061187c600c5490565b90506000600c8054806020026020016040519081016040528092919081815260200182805480156118cc57602002820191906000526020600020905b8154815260200190600101908083116118b8575b5050505050905060005b828110156119d0578181815181106118f0576118f0612547565b60200260200101518510156119be57600d600083838151811061191557611915612547565b602002602001015181526020019081526020016000208054611936906124e4565b80601f0160208091040260200160405190810160405280929190818152602001828054611962906124e4565b80156119af5780601f10611984576101008083540402835291602001916119af565b820191906000526020600020905b81548152906001019060200180831161199257829003601f168201915b50505050509350505050919050565b6119c9600182612670565b90506118d6565b5060405162461bcd60e51b815260206004820152600f60248201526e125b9d985b1a59081d1bdad95b9259608a1b60448201526064016106c5565b606081611a2f5750506040805180820190915260018152600360fc1b602082015290565b8160005b8115611a595780611a4381612609565b9150611a529050600a836125a8565b9150611a33565b6000816001600160401b03811115611a7357611a73611fff565b6040519080825280601f01601f191660200182016040528015611a9d576020820181803683370190505b5090505b84156108c857611ab26001836126b6565b9150611abf600a866126cd565b611aca906030612670565b60f81b818381518110611adf57611adf612547565b60200101906001600160f81b031916908160001a905350611b01600a866125a8565b9450611aa1565b604051630a85bd0160e11b81526000906001600160a01b0385169063150b7a0290611b3d9033908990889088906004016126e1565b602060405180830381600087803b158015611b5757600080fd5b505af1925050508015611b87575060408051601f3d908101601f19168201909252611b8491810190612714565b60015b611be2573d808015611bb5576040519150601f19603f3d011682016040523d82523d6000602084013e611bba565b606091505b508051611bda576040516368d2bf6b60e11b815260040160405180910390fd5b805181602001fd5b6001600160e01b031916630a85bd0160e11b149050949350505050565b60008281526006602052604080822080546001600160a01b0319166001600160a01b0387811691821790925591518593918516917f8c5be1e5ebec7d5bd14f71427d1e84f3dd0314c0f7b2291e5b200ac8c7c3b92591a4505050565b6000611c6682611437565b9050836001600160a01b031681600001516001600160a01b031614611c9d5760405162a1148160e81b815260040160405180910390fd5b6000336001600160a01b0386161480611cbb5750611cbb85336104e6565b80611cd6575033611ccb84610644565b6001600160a01b0316145b905080611cf657604051632ce44b5f60e11b815260040160405180910390fd5b6001600160a01b038416611d1d57604051633a954ecd60e21b815260040160405180910390fd5b611d2960008487611bff565b6001600160a01b038581166000908152600560209081526040808320805467ffffffffffffffff198082166001600160401b0392831660001901831617909255898616808652838620805493841693831660019081018416949094179055898652600490945282852080546001600160e01b031916909417600160a01b42909216919091021783558701808452922080549193909116611dfd576000548214611dfd57805460208601516001600160401b0316600160a01b026001600160e01b03199091166001600160a01b038a16171781555b50505082846001600160a01b0316866001600160a01b031660008051602061277583398151915260405160405180910390a4610bd6565b60606001600160a01b0384163b611e9c5760405162461bcd60e51b815260206004820152602660248201527f416464726573733a2064656c65676174652063616c6c20746f206e6f6e2d636f6044820152651b9d1c9858dd60d21b60648201526084016106c5565b600080856001600160a01b031685604051611eb79190612731565b600060405180830381855af49150503d8060008114611ef2576040519150601f19603f3d011682016040523d82523d6000602084013e611ef7565b606091505b5091509150611f07828286611f11565b9695505050505050565b60608315611f20575081611824565b825115611f305782518084602001fd5b8160405162461bcd60e51b81526004016106c59190612179565b828054611f56906124e4565b90600052602060002090601f016020900481019282611f785760008555611fbe565b82601f10611f9157805160ff1916838001178555611fbe565b82800160010185558215611fbe579182015b82811115611fbe578251825591602001919060010190611fa3565b50611fca929150611fce565b5090565b5b80821115611fca5760008155600101611fcf565b80356001600160a01b0381168114611ffa57600080fd5b919050565b634e487b7160e01b600052604160045260246000fd5b600082601f83011261202657600080fd5b81356001600160401b038082111561204057612040611fff565b604051601f8301601f19908116603f0116810190828211818310171561206857612068611fff565b8160405283815286602085880101111561208157600080fd5b836020870160208301376000602085830101528094505050505092915050565b600080604083850312156120b457600080fd5b6120bd83611fe3565b915060208301356001600160401b038111156120d857600080fd5b6120e485828601612015565b9150509250929050565b6001600160e01b0319811681146106d757600080fd5b60006020828403121561211657600080fd5b8135611824816120ee565b60005b8381101561213c578181015183820152602001612124565b838111156106ff5750506000910152565b60008151808452612165816020860160208601612121565b601f01601f19169290920160200192915050565b602081526000611824602083018461214d565b60006020828403121561219e57600080fd5b5035919050565b600080604083850312156121b857600080fd5b6121c183611fe3565b946020939093013593505050565b6000602082840312156121e157600080fd5b61182482611fe3565b6000806000606084860312156121ff57600080fd5b61220884611fe3565b925061221660208501611fe3565b9150604084013590509250925092565b6000806040838503121561223957600080fd5b50508035926020909101359150565b80151581146106d757600080fd5b60006020828403121561226857600080fd5b813561182481612248565b6000806000806080858703121561228957600080fd5b61229285611fe3565b93506020850135925060408501356001600160401b03808211156122b557600080fd5b6122c188838901612015565b935060608701359150808211156122d757600080fd5b506122e487828801612015565b91505092959194509250565b60006020828403121561230257600080fd5b81356001600160401b0381111561231857600080fd5b6108c884828501612015565b60008060006060848603121561233957600080fd5b8335925061221660208501611fe3565b6000806040838503121561235c57600080fd5b61236583611fe3565b9150602083013561237581612248565b809150509250929050565b6000806020838503121561239357600080fd5b82356001600160401b03808211156123aa57600080fd5b818501915085601f8301126123be57600080fd5b8135818111156123cd57600080fd5b8660208260051b85010111156123e257600080fd5b60209290920196919550909350505050565b6000602080830181845280855180835260408601915060408160051b870101925083870160005b8281101561244957603f1988860301845261243785835161214d565b9450928501929085019060010161241b565b5092979650505050505050565b6000806000806080858703121561246c57600080fd5b61247585611fe3565b935061248360208601611fe3565b92506040850135915060608501356001600160401b038111156124a557600080fd5b6122e487828801612015565b600080604083850312156124c457600080fd5b6124cd83611fe3565b91506124db60208401611fe3565b90509250929050565b600181811c908216806124f857607f821691505b6020821081141561251957634e487b7160e01b600052602260045260246000fd5b50919050565b6020808252600e908201526d139bdd08185d5d1a1bdc9a5e995960921b604082015260600190565b634e487b7160e01b600052603260045260246000fd5b634e487b7160e01b600052601160045260246000fd5b600081600019048311821515161561258d5761258d61255d565b500290565b634e487b7160e01b600052601260045260246000fd5b6000826125b7576125b7612592565b500490565b6000808335601e198436030181126125d357600080fd5b8301803591506001600160401b038211156125ed57600080fd5b60200191503681900382131561260257600080fd5b9250929050565b600060001982141561261d5761261d61255d565b5060010190565b60008351612636818460208801612121565b83519083019061264a818360208801612121565b01949350505050565b60006020828403121561266557600080fd5b815161182481612248565b600082198211156126835761268361255d565b500190565b60408152600061269b604083018561214d565b82810360208401526126ad818561214d565b95945050505050565b6000828210156126c8576126c861255d565b500390565b6000826126dc576126dc612592565b500690565b6001600160a01b0385811682528416602082015260408101839052608060608201819052600090611f079083018461214d565b60006020828403121561272657600080fd5b8151611824816120ee565b60008251612743818460208701612121565b919091019291505056fe416464726573733a206c6f772d6c6576656c2064656c65676174652063616c6c206661696c6564ddf252ad1be2c89b69c2b068fc378daa952ba7f163c4a11628f55a4df523b3efa2646970667358221220bcbf115aa9731940edb3fde7c0bf61d23e0809e0cd44d6fd7fd364878d8c38db64736f6c63430008090033",
  "linkReferences": {},
  "deployedLinkReferences": {}
}